{
  "transactions": [
    {
      "hash": "0xcc495254abbaf763380349f6ed2babaa31df20754da0819b9cfcd6fb9a6dc55f",
      "transactionType": "CALL",
      "contractName": null,
      "contractAddress": "0x106d7759f06eb02e339838461531c6f8f3f7aef3",
      "function": "placeBatchBets(uint256[],uint256[],uint256[],uint256[])",
      "arguments": [
        "[1754924048, 1754924048, 1754924048, 1754924048, 1754924048, 1754924048, 1754924048, 1754924048, 1754924048, 1754924048]",
        "[2547, 2550, 2591, 7000, 2508, 2559, 2535, 5600, 2479, 2529]",
        "[2633, 2690, 2640, 9000, 2601, 2598, 2618, 6300, 2559, 2598]",
        "[6042000000000000, 1304000000000000, 318263000000000000, 240000000000000000, 34320000000000000, 9910000000000000, 170478000000000000, 800000000000000000, 2425000000000000, 1115000000000000]"
      ],
      "transaction": {
        "from": "0x40ade76a75066c6f6ef4dd18aa6218592dea0799",
        "to": "0x106d7759f06eb02e339838461531c6f8f3f7aef3",
        "gas": "0x2c7213",
        "value": "0x15fafd8cc4041000",
        "input": "0xd63418f4000000000000000000000000000000000000000000000000000000000000008000000000000000000000000000000000000000000000000000000000000001e0000000000000000000000000000000000000000000000000000000000000034000000000000000000000000000000000000000000000000000000000000004a0000000000000000000000000000000000000000000000000000000000000000a00000000000000000000000000000000000000000000000000000000689a041000000000000000000000000000000000000000000000000000000000689a041000000000000000000000000000000000000000000000000000000000689a041000000000000000000000000000000000000000000000000000000000689a041000000000000000000000000000000000000000000000000000000000689a041000000000000000000000000000000000000000000000000000000000689a041000000000000000000000000000000000000000000000000000000000689a041000000000000000000000000000000000000000000000000000000000689a041000000000000000000000000000000000000000000000000000000000689a041000000000000000000000000000000000000000000000000000000000689a0410000000000000000000000000000000000000000000000000000000000000000a00000000000000000000000000000000000000000000000000000000000009f300000000000000000000000000000000000000000000000000000000000009f60000000000000000000000000000000000000000000000000000000000000a1f0000000000000000000000000000000000000000000000000000000000001b5800000000000000000000000000000000000000000000000000000000000009cc00000000000000000000000000000000000000000000000000000000000009ff00000000000000000000000000000000000000000000000000000000000009e700000000000000000000000000000000000000000000000000000000000015e000000000000000000000000000000000000000000000000000000000000009af00000000000000000000000000000000000000000000000000000000000009e1000000000000000000000000000000000000000000000000000000000000000a0000000000000000000000000000000000000000000000000000000000000a490000000000000000000000000000000000000000000000000000000000000a820000000000000000000000000000000000000000000000000000000000000a5000000000000000000000000000000000000000000000000000000000000023280000000000000000000000000000000000000000000000000000000000000a290000000000000000000000000000000000000000000000000000000000000a260000000000000000000000000000000000000000000000000000000000000a3a000000000000000000000000000000000000000000000000000000000000189c00000000000000000000000000000000000000000000000000000000000009ff0000000000000000000000000000000000000000000000000000000000000a26000000000000000000000000000000000000000000000000000000000000000a0000000000000000000000000000000000000000000000000015772abfbba0000000000000000000000000000000000000000000000000000004a1fb28c98000000000000000000000000000000000000000000000000000046ab283242670000000000000000000000000000000000000000000000000000354a6ba7a1800000000000000000000000000000000000000000000000000000079eddbb0b1000000000000000000000000000000000000000000000000000000233517adb96000000000000000000000000000000000000000000000000000025da8d67804e0000000000000000000000000000000000000000000000000000b1a2bc2ec50000000000000000000000000000000000000000000000000000000089d864f9490000000000000000000000000000000000000000000000000000003f6162aecb000",
        "nonce": "0x22",
        "chainId": "0x127"
      },
      "additionalContracts": [],
      "isFixedGasLimit": false
    }
  ],
  "receipts": [],
  "libraries": [],
  "pending": [
    "0xcc495254abbaf763380349f6ed2babaa31df20754da0819b9cfcd6fb9a6dc55f"
  ],
  "returns": {},
  "timestamp": 1754664900,
  "chain": 295,
  "commit": "d3df94b"
}