{
  "transactions": [
    {
      "hash": "0x5351916ed6886d4d06a01aea6ac720d7aaea0e7fdf3823fe739b31f4b47f0175",
      "transactionType": "CALL",
      "contractName": null,
      "contractAddress": "0x106d7759f06eb02e339838461531c6f8f3f7aef3",
      "function": "placeBatchBets(uint256[],uint256[],uint256[],uint256[])",
      "arguments": [
        "[1754923980, 1754923980, 1754923980, 1754923980, 1754923980, 1754923980, 1754923980, 1754923980, 1754923980, 1754923980]",
        "[2486, 2957, 2511, 2401, 3025, 2478, 2574, 1200, 2335, 2321]",
        "[2558, 3049, 2613, 2527, 3115, 2529, 2609, 1500, 2555, 2463]",
        "[183880000000000000, 480000000000000000, 3417000000000000, 22066000000000000, 400000000000000000, 10486000000000000, 149188000000000000, 240000000000000000, 4842000000000000, 4720000000000000]"
      ],
      "transaction": {
        "from": "0x40ade76a75066c6f6ef4dd18aa6218592dea0799",
        "to": "0x106d7759f06eb02e339838461531c6f8f3f7aef3",
        "gas": "0x29f9f9",
        "value": "0x14cc17d9bfc17000",
        "input": "0xd63418f4000000000000000000000000000000000000000000000000000000000000008000000000000000000000000000000000000000000000000000000000000001e0000000000000000000000000000000000000000000000000000000000000034000000000000000000000000000000000000000000000000000000000000004a0000000000000000000000000000000000000000000000000000000000000000a00000000000000000000000000000000000000000000000000000000689a03cc00000000000000000000000000000000000000000000000000000000689a03cc00000000000000000000000000000000000000000000000000000000689a03cc00000000000000000000000000000000000000000000000000000000689a03cc00000000000000000000000000000000000000000000000000000000689a03cc00000000000000000000000000000000000000000000000000000000689a03cc00000000000000000000000000000000000000000000000000000000689a03cc00000000000000000000000000000000000000000000000000000000689a03cc00000000000000000000000000000000000000000000000000000000689a03cc00000000000000000000000000000000000000000000000000000000689a03cc000000000000000000000000000000000000000000000000000000000000000a00000000000000000000000000000000000000000000000000000000000009b60000000000000000000000000000000000000000000000000000000000000b8d00000000000000000000000000000000000000000000000000000000000009cf00000000000000000000000000000000000000000000000000000000000009610000000000000000000000000000000000000000000000000000000000000bd100000000000000000000000000000000000000000000000000000000000009ae0000000000000000000000000000000000000000000000000000000000000a0e00000000000000000000000000000000000000000000000000000000000004b0000000000000000000000000000000000000000000000000000000000000091f0000000000000000000000000000000000000000000000000000000000000911000000000000000000000000000000000000000000000000000000000000000a00000000000000000000000000000000000000000000000000000000000009fe0000000000000000000000000000000000000000000000000000000000000be90000000000000000000000000000000000000000000000000000000000000a3500000000000000000000000000000000000000000000000000000000000009df0000000000000000000000000000000000000000000000000000000000000c2b00000000000000000000000000000000000000000000000000000000000009e10000000000000000000000000000000000000000000000000000000000000a3100000000000000000000000000000000000000000000000000000000000005dc00000000000000000000000000000000000000000000000000000000000009fb000000000000000000000000000000000000000000000000000000000000099f000000000000000000000000000000000000000000000000000000000000000a000000000000000000000000000000000000000000000000028d45e2c14c800000000000000000000000000000000000000000000000000006a94d74f4300000000000000000000000000000000000000000000000000000000c23be4f329000000000000000000000000000000000000000000000000000004e64e8fb9d2000000000000000000000000000000000000000000000000000058d15e176280000000000000000000000000000000000000000000000000000002540f6211d6000000000000000000000000000000000000000000000000000021205b210c040000000000000000000000000000000000000000000000000000354a6ba7a180000000000000000000000000000000000000000000000000000001133c5fa00a0000000000000000000000000000000000000000000000000000010c4d0a3570000",
        "nonce": "0x21",
        "chainId": "0x127"
      },
      "additionalContracts": [],
      "isFixedGasLimit": false
    }
  ],
  "receipts": [],
  "libraries": [],
  "pending": [
    "0x5351916ed6886d4d06a01aea6ac720d7aaea0e7fdf3823fe739b31f4b47f0175"
  ],
  "returns": {},
  "timestamp": 1754664832,
  "chain": 295,
  "commit": "d3df94b"
}