{
  "transactions": [
    {
      "hash": "0x5ef4f7c3e9a7be7cdc4f3797c86494ff525f3be88d44a03603e706c56a0c69e7",
      "transactionType": "CALL",
      "contractName": null,
      "contractAddress": "0x106d7759f06eb02e339838461531c6f8f3f7aef3",
      "function": "placeBatchBets(uint256[],uint256[],uint256[],uint256[])",
      "arguments": [
        "[1754924664, 1754924664, 1754924664, 1754924664, 1754924664, 1754924664, 1754924664, 1754924664, 1754924664, 1754924664]",
        "[2600, 2549, 2620, 2889, 1636, 2547, 2564, 2612, 2662, 2640]",
        "[2693, 2731, 2811, 3054, 1868, 2602, 2600, 2752, 2701, 2691]",
        "[3300000000000000, 4122000000000000, 260700000000000000, 280000000000000000, 105740000000000000, 205240000000000000, 25539000000000000, 244120000000000000, 1718000000000000, 10773000000000000]"
      ],
      "transaction": {
        "from": "0x40ade76a75066c6f6ef4dd18aa6218592dea0799",
        "to": "0x106d7759f06eb02e339838461531c6f8f3f7aef3",
        "gas": "0x29fa14",
        "value": "0xfd68aa5bb344000",
        "input": "0xd63418f4000000000000000000000000000000000000000000000000000000000000008000000000000000000000000000000000000000000000000000000000000001e0000000000000000000000000000000000000000000000000000000000000034000000000000000000000000000000000000000000000000000000000000004a0000000000000000000000000000000000000000000000000000000000000000a00000000000000000000000000000000000000000000000000000000689a067800000000000000000000000000000000000000000000000000000000689a067800000000000000000000000000000000000000000000000000000000689a067800000000000000000000000000000000000000000000000000000000689a067800000000000000000000000000000000000000000000000000000000689a067800000000000000000000000000000000000000000000000000000000689a067800000000000000000000000000000000000000000000000000000000689a067800000000000000000000000000000000000000000000000000000000689a067800000000000000000000000000000000000000000000000000000000689a067800000000000000000000000000000000000000000000000000000000689a0678000000000000000000000000000000000000000000000000000000000000000a0000000000000000000000000000000000000000000000000000000000000a2800000000000000000000000000000000000000000000000000000000000009f50000000000000000000000000000000000000000000000000000000000000a3c0000000000000000000000000000000000000000000000000000000000000b49000000000000000000000000000000000000000000000000000000000000066400000000000000000000000000000000000000000000000000000000000009f30000000000000000000000000000000000000000000000000000000000000a040000000000000000000000000000000000000000000000000000000000000a340000000000000000000000000000000000000000000000000000000000000a660000000000000000000000000000000000000000000000000000000000000a50000000000000000000000000000000000000000000000000000000000000000a0000000000000000000000000000000000000000000000000000000000000a850000000000000000000000000000000000000000000000000000000000000aab0000000000000000000000000000000000000000000000000000000000000afb0000000000000000000000000000000000000000000000000000000000000bee000000000000000000000000000000000000000000000000000000000000074c0000000000000000000000000000000000000000000000000000000000000a2a0000000000000000000000000000000000000000000000000000000000000a280000000000000000000000000000000000000000000000000000000000000ac00000000000000000000000000000000000000000000000000000000000000a8d0000000000000000000000000000000000000000000000000000000000000a83000000000000000000000000000000000000000000000000000000000000000a000000000000000000000000000000000000000000000000000bb9551fc24000000000000000000000000000000000000000000000000000000ea4efe9c3a000000000000000000000000000000000000000000000000000039e3144ccf1c00000000000000000000000000000000000000000000000000003e2c284391c00000000000000000000000000000000000000000000000000000177a9f8428cc00000000000000000000000000000000000000000000000000002d928b14db38000000000000000000000000000000000000000000000000000005abb95ceeb3000000000000000000000000000000000000000000000000000036349d8ba91800000000000000000000000000000000000000000000000000000061a830bb96000000000000000000000000000000000000000000000000000002645fc862a5000",
        "nonce": "0x24",
        "chainId": "0x127"
      },
      "additionalContracts": [],
      "isFixedGasLimit": false
    }
  ],
  "receipts": [],
  "libraries": [],
  "pending": [
    "0x5ef4f7c3e9a7be7cdc4f3797c86494ff525f3be88d44a03603e706c56a0c69e7"
  ],
  "returns": {},
  "timestamp": 1754665514,
  "chain": 295,
  "commit": "d3df94b"
}