{
  "transactions": [
    {
      "hash": "0xa5182a3e79c374e807ee1b058f6e4a43c8b9913774f8df710feb59745276d962",
      "transactionType": "CALL",
      "contractName": null,
      "contractAddress": "0x106d7759f06eb02e339838461531c6f8f3f7aef3",
      "function": "placeBatchBets(uint256[],uint256[],uint256[],uint256[])",
      "arguments": [
        "[1754836436, 1754836436, 1754836436, 1754922836, 1754922836, 1754922836, 1755009236, 1755009236, 1755009236, 1754922836]",
        "[2100, 2320, 2000, 2650, 2450, 2200, 2050, 2750, 2900, 2200]",
        "[2550, 2820, 2600, 3150, 2930, 2650, 2800, 3450, 3500, 3200]",
        "[1000000000000000, 1500000000000000, 2000000000000000, 2500000000000000, 3000000000000000, 1200000000000000, 1800000000000000, 2200000000000000, 2800000000000000, 1700000000000000]"
      ],
      "transaction": {
        "from": "0x40ade76a75066c6f6ef4dd18aa6218592dea0799",
        "to": "0x106d7759f06eb02e339838461531c6f8f3f7aef3",
        "gas": "0x2e2054",
        "value": "0x45fd0bae134000",
        "input": "0xd63418f4000000000000000000000000000000000000000000000000000000000000008000000000000000000000000000000000000000000000000000000000000001e0000000000000000000000000000000000000000000000000000000000000034000000000000000000000000000000000000000000000000000000000000004a0000000000000000000000000000000000000000000000000000000000000000a000000000000000000000000000000000000000000000000000000006898add4000000000000000000000000000000000000000000000000000000006898add4000000000000000000000000000000000000000000000000000000006898add4000000000000000000000000000000000000000000000000000000006899ff54000000000000000000000000000000000000000000000000000000006899ff54000000000000000000000000000000000000000000000000000000006899ff5400000000000000000000000000000000000000000000000000000000689b50d400000000000000000000000000000000000000000000000000000000689b50d400000000000000000000000000000000000000000000000000000000689b50d4000000000000000000000000000000000000000000000000000000006899ff54000000000000000000000000000000000000000000000000000000000000000a0000000000000000000000000000000000000000000000000000000000000834000000000000000000000000000000000000000000000000000000000000091000000000000000000000000000000000000000000000000000000000000007d00000000000000000000000000000000000000000000000000000000000000a5a0000000000000000000000000000000000000000000000000000000000000992000000000000000000000000000000000000000000000000000000000000089800000000000000000000000000000000000000000000000000000000000008020000000000000000000000000000000000000000000000000000000000000abe0000000000000000000000000000000000000000000000000000000000000b540000000000000000000000000000000000000000000000000000000000000898000000000000000000000000000000000000000000000000000000000000000a00000000000000000000000000000000000000000000000000000000000009f60000000000000000000000000000000000000000000000000000000000000b040000000000000000000000000000000000000000000000000000000000000a280000000000000000000000000000000000000000000000000000000000000c4e0000000000000000000000000000000000000000000000000000000000000b720000000000000000000000000000000000000000000000000000000000000a5a0000000000000000000000000000000000000000000000000000000000000af00000000000000000000000000000000000000000000000000000000000000d7a0000000000000000000000000000000000000000000000000000000000000dac0000000000000000000000000000000000000000000000000000000000000c80000000000000000000000000000000000000000000000000000000000000000a00000000000000000000000000000000000000000000000000038d7ea4c680000000000000000000000000000000000000000000000000000005543df729c00000000000000000000000000000000000000000000000000000071afd498d00000000000000000000000000000000000000000000000000000008e1bc9bf04000000000000000000000000000000000000000000000000000000aa87bee53800000000000000000000000000000000000000000000000000000044364c5bb000000000000000000000000000000000000000000000000000000066517289880000000000000000000000000000000000000000000000000000007d0e36a8180000000000000000000000000000000000000000000000000000009f295cd5f000000000000000000000000000000000000000000000000000000060a24181e4000",
        "nonce": "0x1c",
        "chainId": "0x127"
      },
      "additionalContracts": [],
      "isFixedGasLimit": false
    }
  ],
  "receipts": [],
  "libraries": [],
  "pending": [
    "0xa5182a3e79c374e807ee1b058f6e4a43c8b9913774f8df710feb59745276d962"
  ],
  "returns": {},
  "timestamp": 1754663688,
  "chain": 295,
  "commit": "d3df94b"
}