{
  "transactions": [
    {
      "hash": "0x260483a9d1ae689372bc735137e60d52c9f8b00a300a4813b2acd4452dcf4881",
      "transactionType": "CALL",
      "contractName": null,
      "contractAddress": "0x6e612d342dbaa17ea17c4a8fe95553c0594e052b",
      "function": "placeBet(uint256,uint256,uint256)",
      "arguments": [
        "1754739226",
        "2100",
        "2550"
      ],
      "transaction": {
        "from": "0x40ade76a75066c6f6ef4dd18aa6218592dea0799",
        "to": "0x6e612d342dbaa17ea17c4a8fe95553c0594e052b",
        "gas": "0x691d5",
        "value": "0x38d7ea4c68000",
        "input": "0xe71c9697000000000000000000000000000000000000000000000000000000006897321a000000000000000000000000000000000000000000000000000000000000083400000000000000000000000000000000000000000000000000000000000009f6",
        "nonce": "0xa",
        "chainId": "0x127"
      },
      "additionalContracts": [],
      "isFixedGasLimit": false
    },
    {
      "hash": "0x4a4c4dc179cbe08e4712aba69b8e473f6f6e094dd57fca82c6921d70c28b051d",
      "transactionType": "CALL",
      "contractName": null,
      "contractAddress": "0x6e612d342dbaa17ea17c4a8fe95553c0594e052b",
      "function": "placeBet(uint256,uint256,uint256)",
      "arguments": [
        "1754739226",
        "2320",
        "2820"
      ],
      "transaction": {
        "from": "0x40ade76a75066c6f6ef4dd18aa6218592dea0799",
        "to": "0x6e612d342dbaa17ea17c4a8fe95553c0594e052b",
        "gas": "0x51f9b",
        "value": "0x5543df729c000",
        "input": "0xe71c9697000000000000000000000000000000000000000000000000000000006897321a00000000000000000000000000000000000000000000000000000000000009100000000000000000000000000000000000000000000000000000000000000b04",
        "nonce": "0xb",
        "chainId": "0x127"
      },
      "additionalContracts": [],
      "isFixedGasLimit": false
    },
    {
      "hash": "0x9472f7d5961a52b50e0992ec6d5cbab1a9914e93e53b04298917bb10b1d6ac90",
      "transactionType": "CALL",
      "contractName": null,
      "contractAddress": "0x6e612d342dbaa17ea17c4a8fe95553c0594e052b",
      "function": "placeBet(uint256,uint256,uint256)",
      "arguments": [
        "1754739226",
        "2000",
        "2600"
      ],
      "transaction": {
        "from": "0x40ade76a75066c6f6ef4dd18aa6218592dea0799",
        "to": "0x6e612d342dbaa17ea17c4a8fe95553c0594e052b",
        "gas": "0x51f7b",
        "value": "0x71afd498d0000",
        "input": "0xe71c9697000000000000000000000000000000000000000000000000000000006897321a00000000000000000000000000000000000000000000000000000000000007d00000000000000000000000000000000000000000000000000000000000000a28",
        "nonce": "0xc",
        "chainId": "0x127"
      },
      "additionalContracts": [],
      "isFixedGasLimit": false
    },
    {
      "hash": "0x0e4134218e84044073c12ea2d116c625cca86e480c69a931cb00f1346730aaa9",
      "transactionType": "CALL",
      "contractName": null,
      "contractAddress": "0x6e612d342dbaa17ea17c4a8fe95553c0594e052b",
      "function": "placeBet(uint256,uint256,uint256)",
      "arguments": [
        "1754825626",
        "2650",
        "3150"
      ],
      "transaction": {
        "from": "0x40ade76a75066c6f6ef4dd18aa6218592dea0799",
        "to": "0x6e612d342dbaa17ea17c4a8fe95553c0594e052b",
        "gas": "0x69133",
        "value": "0x8e1bc9bf04000",
        "input": "0xe71c9697000000000000000000000000000000000000000000000000000000006898839a0000000000000000000000000000000000000000000000000000000000000a5a0000000000000000000000000000000000000000000000000000000000000c4e",
        "nonce": "0xd",
        "chainId": "0x127"
      },
      "additionalContracts": [],
      "isFixedGasLimit": false
    },
    {
      "hash": "0xf056c126cac550a513a3db2bc7343eaeccb02d30cec8ed4022b1a2d8bc839c50",
      "transactionType": "CALL",
      "contractName": null,
      "contractAddress": "0x6e612d342dbaa17ea17c4a8fe95553c0594e052b",
      "function": "placeBet(uint256,uint256,uint256)",
      "arguments": [
        "1754825626",
        "2450",
        "2930"
      ],
      "transaction": {
        "from": "0x40ade76a75066c6f6ef4dd18aa6218592dea0799",
        "to": "0x6e612d342dbaa17ea17c4a8fe95553c0594e052b",
        "gas": "0x51f02",
        "value": "0xaa87bee538000",
        "input": "0xe71c9697000000000000000000000000000000000000000000000000000000006898839a00000000000000000000000000000000000000000000000000000000000009920000000000000000000000000000000000000000000000000000000000000b72",
        "nonce": "0xe",
        "chainId": "0x127"
      },
      "additionalContracts": [],
      "isFixedGasLimit": false
    },
    {
      "hash": "0xc9056fbf1b61442dfa3e90ceeb6ade12ae111a71eb0178fc6e7501a73486ba7d",
      "transactionType": "CALL",
      "contractName": null,
      "contractAddress": "0x6e612d342dbaa17ea17c4a8fe95553c0594e052b",
      "function": "placeBet(uint256,uint256,uint256)",
      "arguments": [
        "1754825626",
        "2200",
        "2650"
      ],
      "transaction": {
        "from": "0x40ade76a75066c6f6ef4dd18aa6218592dea0799",
        "to": "0x6e612d342dbaa17ea17c4a8fe95553c0594e052b",
        "gas": "0x51f02",
        "value": "0x44364c5bb0000",
        "input": "0xe71c9697000000000000000000000000000000000000000000000000000000006898839a00000000000000000000000000000000000000000000000000000000000008980000000000000000000000000000000000000000000000000000000000000a5a",
        "nonce": "0xf",
        "chainId": "0x127"
      },
      "additionalContracts": [],
      "isFixedGasLimit": false
    },
    {
      "hash": "0xd55a1edb1c6c5ced623efe6ea872c0c3a5081bbe58af760d5c0ce884e1153ace",
      "transactionType": "CALL",
      "contractName": null,
      "contractAddress": "0x6e612d342dbaa17ea17c4a8fe95553c0594e052b",
      "function": "placeBet(uint256,uint256,uint256)",
      "arguments": [
        "1754912026",
        "2050",
        "2800"
      ],
      "transaction": {
        "from": "0x40ade76a75066c6f6ef4dd18aa6218592dea0799",
        "to": "0x6e612d342dbaa17ea17c4a8fe95553c0594e052b",
        "gas": "0x69111",
        "value": "0x6651728988000",
        "input": "0xe71c9697000000000000000000000000000000000000000000000000000000006899d51a00000000000000000000000000000000000000000000000000000000000008020000000000000000000000000000000000000000000000000000000000000af0",
        "nonce": "0x10",
        "chainId": "0x127"
      },
      "additionalContracts": [],
      "isFixedGasLimit": false
    },
    {
      "hash": "0x0d641a42756f54647b525c954be3428919346c4b0a87d254ebe8f1241ffbef53",
      "transactionType": "CALL",
      "contractName": null,
      "contractAddress": "0x6e612d342dbaa17ea17c4a8fe95553c0594e052b",
      "function": "placeBet(uint256,uint256,uint256)",
      "arguments": [
        "1754912026",
        "2750",
        "3450"
      ],
      "transaction": {
        "from": "0x40ade76a75066c6f6ef4dd18aa6218592dea0799",
        "to": "0x6e612d342dbaa17ea17c4a8fe95553c0594e052b",
        "gas": "0x51ee1",
        "value": "0x7d0e36a818000",
        "input": "0xe71c9697000000000000000000000000000000000000000000000000000000006899d51a0000000000000000000000000000000000000000000000000000000000000abe0000000000000000000000000000000000000000000000000000000000000d7a",
        "nonce": "0x11",
        "chainId": "0x127"
      },
      "additionalContracts": [],
      "isFixedGasLimit": false
    },
    {
      "hash": "0x43428c855b25de5f06389372f990b8f8b4623d4c989094ed9ca8eebd6f02d76d",
      "transactionType": "CALL",
      "contractName": null,
      "contractAddress": "0x6e612d342dbaa17ea17c4a8fe95553c0594e052b",
      "function": "placeBet(uint256,uint256,uint256)",
      "arguments": [
        "1754912026",
        "2900",
        "3500"
      ],
      "transaction": {
        "from": "0x40ade76a75066c6f6ef4dd18aa6218592dea0799",
        "to": "0x6e612d342dbaa17ea17c4a8fe95553c0594e052b",
        "gas": "0x51f02",
        "value": "0x9f295cd5f0000",
        "input": "0xe71c9697000000000000000000000000000000000000000000000000000000006899d51a0000000000000000000000000000000000000000000000000000000000000b540000000000000000000000000000000000000000000000000000000000000dac",
        "nonce": "0x12",
        "chainId": "0x127"
      },
      "additionalContracts": [],
      "isFixedGasLimit": false
    },
    {
      "hash": "0x2889fb75c9b19e3f56d71851f0d894a3132cf8e0ef2b634bc018ff9365b63da0",
      "transactionType": "CALL",
      "contractName": null,
      "contractAddress": "0x6e612d342dbaa17ea17c4a8fe95553c0594e052b",
      "function": "placeBet(uint256,uint256,uint256)",
      "arguments": [
        "1754825626",
        "2200",
        "3200"
      ],
      "transaction": {
        "from": "0x40ade76a75066c6f6ef4dd18aa6218592dea0799",
        "to": "0x6e612d342dbaa17ea17c4a8fe95553c0594e052b",
        "gas": "0x51ee1",
        "value": "0x60a24181e4000",
        "input": "0xe71c9697000000000000000000000000000000000000000000000000000000006898839a00000000000000000000000000000000000000000000000000000000000008980000000000000000000000000000000000000000000000000000000000000c80",
        "nonce": "0x13",
        "chainId": "0x127"
      },
      "additionalContracts": [],
      "isFixedGasLimit": false
    }
  ],
  "receipts": [],
  "libraries": [],
  "pending": [
    "0x260483a9d1ae689372bc735137e60d52c9f8b00a300a4813b2acd4452dcf4881",
    "0x4a4c4dc179cbe08e4712aba69b8e473f6f6e094dd57fca82c6921d70c28b051d",
    "0x9472f7d5961a52b50e0992ec6d5cbab1a9914e93e53b04298917bb10b1d6ac90",
    "0x0e4134218e84044073c12ea2d116c625cca86e480c69a931cb00f1346730aaa9",
    "0xf056c126cac550a513a3db2bc7343eaeccb02d30cec8ed4022b1a2d8bc839c50",
    "0xc9056fbf1b61442dfa3e90ceeb6ade12ae111a71eb0178fc6e7501a73486ba7d",
    "0xd55a1edb1c6c5ced623efe6ea872c0c3a5081bbe58af760d5c0ce884e1153ace",
    "0x0d641a42756f54647b525c954be3428919346c4b0a87d254ebe8f1241ffbef53",
    "0x43428c855b25de5f06389372f990b8f8b4623d4c989094ed9ca8eebd6f02d76d",
    "0x2889fb75c9b19e3f56d71851f0d894a3132cf8e0ef2b634bc018ff9365b63da0"
  ],
  "returns": {},
  "timestamp": 1754566525,
  "chain": 295,
  "commit": "d3df94b"
}