{
  "transactions": [
    {
      "hash": "0x182716d29d2677781cef0e0dc9589687b3ad2c2920a9dc8a4b14542df0504765",
      "transactionType": "CALL",
      "contractName": null,
      "contractAddress": "0x6e612d342dbaa17ea17c4a8fe95553c0594e052b",
      "function": "placeBet(uint256,uint256,uint256)",
      "arguments": [
        "1754559300",
        "1500",
        "2500"
      ],
      "transaction": {
        "from": "0x40ade76a75066c6f6ef4dd18aa6218592dea0799",
        "to": "0x6e612d342dbaa17ea17c4a8fe95553c0594e052b",
        "gas": "0x6814e",
        "value": "0x38d7ea4c68000",
        "input": "0xe71c9697000000000000000000000000000000000000000000000000000000006894734400000000000000000000000000000000000000000000000000000000000005dc00000000000000000000000000000000000000000000000000000000000009c4",
        "nonce": "0x8",
        "chainId": "0x127"
      },
      "additionalContracts": [],
      "isFixedGasLimit": false
    }
  ],
  "receipts": [],
  "libraries": [],
  "pending": [
    "0x182716d29d2677781cef0e0dc9589687b3ad2c2920a9dc8a4b14542df0504765"
  ],
  "returns": {
    "0": {
      "internal_type": "uint256",
      "value": "0"
    }
  },
  "timestamp": 1754472866,
  "chain": 295,
  "commit": "d3df94b"
}