{
  "transactions": [
    {
      "hash": null,
      "transactionType": "CALL",
      "contractName": null,
      "contractAddress": "0xb1be22ead5086cb8409bb81d0f63aae36a977798",
      "function": "placeBatchBets(uint256[],uint256[],uint256[])",
      "arguments": [
        "[1754892147, 1754821566, 1754821626, 1754828779, 1754829199, 1754830107, 1754831787, 1754830000, 1754833380, 1754835153]",
        "[2000, 2646, 2625, 2555, 2600, 2549, 2620, 2889, 1636, 2547]",
        "[2500, 2808, 2683, 2628, 2693, 2731, 2811, 3054, 1868, 2603]"
      ],
      "transaction": {
        "from": "0x40ade76a75066c6f6ef4dd18aa6218592dea0799",
        "to": "0xb1be22ead5086cb8409bb81d0f63aae36a977798",
        "gas": "0x2b164a",
        "value": "0x2386f26fc10000",
        "input": "0x08341476000000000000000000000000000000000000000000000000000000000000006000000000000000000000000000000000000000000000000000000000000001c00000000000000000000000000000000000000000000000000000000000000320000000000000000000000000000000000000000000000000000000000000000a000000000000000000000000000000000000000000000000000000006899877300000000000000000000000000000000000000000000000000000000689873be00000000000000000000000000000000000000000000000000000000689873fa0000000000000000000000000000000000000000000000000000000068988feb000000000000000000000000000000000000000000000000000000006898918f000000000000000000000000000000000000000000000000000000006898951b0000000000000000000000000000000000000000000000000000000068989bab00000000000000000000000000000000000000000000000000000000689894b0000000000000000000000000000000000000000000000000000000006898a1e4000000000000000000000000000000000000000000000000000000006898a8d1000000000000000000000000000000000000000000000000000000000000000a00000000000000000000000000000000000000000000000000000000000007d00000000000000000000000000000000000000000000000000000000000000a560000000000000000000000000000000000000000000000000000000000000a4100000000000000000000000000000000000000000000000000000000000009fb0000000000000000000000000000000000000000000000000000000000000a2800000000000000000000000000000000000000000000000000000000000009f50000000000000000000000000000000000000000000000000000000000000a3c0000000000000000000000000000000000000000000000000000000000000b49000000000000000000000000000000000000000000000000000000000000066400000000000000000000000000000000000000000000000000000000000009f3000000000000000000000000000000000000000000000000000000000000000a00000000000000000000000000000000000000000000000000000000000009c40000000000000000000000000000000000000000000000000000000000000af80000000000000000000000000000000000000000000000000000000000000a7b0000000000000000000000000000000000000000000000000000000000000a440000000000000000000000000000000000000000000000000000000000000a850000000000000000000000000000000000000000000000000000000000000aab0000000000000000000000000000000000000000000000000000000000000afb0000000000000000000000000000000000000000000000000000000000000bee000000000000000000000000000000000000000000000000000000000000074c0000000000000000000000000000000000000000000000000000000000000a2b",
        "nonce": "0x17",
        "chainId": "0x127"
      },
      "additionalContracts": [],
      "isFixedGasLimit": false
    }
  ],
  "receipts": [],
  "libraries": [],
  "pending": [],
  "returns": {},
  "timestamp": 1754651980,
  "chain": 295,
  "commit": "d3df94b"
}