{
  "transactions": [
    {
      "hash": "0xd0a1cccdeaf187e200312a1e2106d66a071b489ce97c342336290b45ab52d42d",
      "transactionType": "CALL",
      "contractName": null,
      "contractAddress": "0x6914fda80246ccd0854f22260cadb461411909a3",
      "function": "placeBet(uint256,uint256,uint256)",
      "arguments": [
        "1754900062",
        "1500",
        "2500"
      ],
      "transaction": {
        "from": "0x40ade76a75066c6f6ef4dd18aa6218592dea0799",
        "to": "0x6914fda80246ccd0854f22260cadb461411909a3",
        "gas": "0x6e251",
        "value": "0x2386f26fc10000",
        "input": "0xe71c9697000000000000000000000000000000000000000000000000000000006899a65e00000000000000000000000000000000000000000000000000000000000005dc00000000000000000000000000000000000000000000000000000000000009c4",
        "nonce": "0x3",
        "chainId": "0x127"
      },
      "additionalContracts": [],
      "isFixedGasLimit": false
    }
  ],
  "receipts": [],
  "libraries": [],
  "pending": [
    "0xd0a1cccdeaf187e200312a1e2106d66a071b489ce97c342336290b45ab52d42d"
  ],
  "returns": {
    "0": {
      "internal_type": "uint256",
      "value": "0"
    }
  },
  "timestamp": 1754468087,
  "chain": 295,
  "commit": "d3df94b"
}