{
  "transactions": [
    {
      "hash": "0x65ccdade0520d04a2beba71b8a8e6cf2cf4dfbdfdeaa20b89c98b172db306a45",
      "transactionType": "CALL",
      "contractName": null,
      "contractAddress": "0x106d7759f06eb02e339838461531c6f8f3f7aef3",
      "function": "placeBatchBets(uint256[],uint256[],uint256[],uint256[])",
      "arguments": [
        "[1754923878, 1754923878, 1754923878, 1754923878, 1754923878, 1754923878, 1754923878, 1754923878, 1754923878, 1754923878]",
        "[3099, 2355, 2329, 2200, 2368, 2379, 3099, 2401, 1700, 2480]",
        "[3250, 2445, 2526, 2500, 2461, 2550, 3295, 2580, 2200, 2508]",
        "[40000000000000000, 68048000000000000, 2429000000000000, 150000000000000000, 34738000000000000, 1852000000000000, 240000000000000000, 25064000000000000, 140000000000000000, 98985000000000000]"
      ],
      "transaction": {
        "from": "0x40ade76a75066c6f6ef4dd18aa6218592dea0799",
        "to": "0x106d7759f06eb02e339838461531c6f8f3f7aef3",
        "gas": "0x2c71a0",
        "value": "0xb1e22c1ebe1c000",
        "input": "0xd63418f4000000000000000000000000000000000000000000000000000000000000008000000000000000000000000000000000000000000000000000000000000001e0000000000000000000000000000000000000000000000000000000000000034000000000000000000000000000000000000000000000000000000000000004a0000000000000000000000000000000000000000000000000000000000000000a00000000000000000000000000000000000000000000000000000000689a036600000000000000000000000000000000000000000000000000000000689a036600000000000000000000000000000000000000000000000000000000689a036600000000000000000000000000000000000000000000000000000000689a036600000000000000000000000000000000000000000000000000000000689a036600000000000000000000000000000000000000000000000000000000689a036600000000000000000000000000000000000000000000000000000000689a036600000000000000000000000000000000000000000000000000000000689a036600000000000000000000000000000000000000000000000000000000689a036600000000000000000000000000000000000000000000000000000000689a0366000000000000000000000000000000000000000000000000000000000000000a0000000000000000000000000000000000000000000000000000000000000c1b0000000000000000000000000000000000000000000000000000000000000933000000000000000000000000000000000000000000000000000000000000091900000000000000000000000000000000000000000000000000000000000008980000000000000000000000000000000000000000000000000000000000000940000000000000000000000000000000000000000000000000000000000000094b0000000000000000000000000000000000000000000000000000000000000c1b000000000000000000000000000000000000000000000000000000000000096100000000000000000000000000000000000000000000000000000000000006a400000000000000000000000000000000000000000000000000000000000009b0000000000000000000000000000000000000000000000000000000000000000a0000000000000000000000000000000000000000000000000000000000000cb2000000000000000000000000000000000000000000000000000000000000098d00000000000000000000000000000000000000000000000000000000000009de00000000000000000000000000000000000000000000000000000000000009c4000000000000000000000000000000000000000000000000000000000000099d00000000000000000000000000000000000000000000000000000000000009f60000000000000000000000000000000000000000000000000000000000000cdf0000000000000000000000000000000000000000000000000000000000000a14000000000000000000000000000000000000000000000000000000000000089800000000000000000000000000000000000000000000000000000000000009cc000000000000000000000000000000000000000000000000000000000000000a000000000000000000000000000000000000000000000000008e1bc9bf04000000000000000000000000000000000000000000000000000000f1c14ba3ad00000000000000000000000000000000000000000000000000000008a129a228d0000000000000000000000000000000000000000000000000000214e8348c4f0000000000000000000000000000000000000000000000000000007b6a06e6352000000000000000000000000000000000000000000000000000000694625a1fc0000000000000000000000000000000000000000000000000000354a6ba7a18000000000000000000000000000000000000000000000000000000590b9340a6800000000000000000000000000000000000000000000000000001f161421c8e0000000000000000000000000000000000000000000000000000015faa5543179000",
        "nonce": "0x20",
        "chainId": "0x127"
      },
      "additionalContracts": [],
      "isFixedGasLimit": false
    }
  ],
  "receipts": [],
  "libraries": [],
  "pending": [
    "0x65ccdade0520d04a2beba71b8a8e6cf2cf4dfbdfdeaa20b89c98b172db306a45"
  ],
  "returns": {},
  "timestamp": 1754664728,
  "chain": 295,
  "commit": "d3df94b"
}