{
  "transactions": [
    {
      "hash": null,
      "transactionType": "CALL",
      "contractName": null,
      "contractAddress": "0x106d7759f06eb02e339838461531c6f8f3f7aef3",
      "function": "placeBatchBets(uint256[],uint256[],uint256[],uint256[])",
      "arguments": [
        "[1754924302, 1754924302, 1754924302, 1754924302, 1754924302, 1754924302, 1754924302, 1754924302, 1754924302, 1754924302]",
        "[2561, 2602, 4300, 2598, 2611, 2569, 2591, 2645, 2624, 2554]",
        "[2612, 2641, 6500, 2669, 2643, 2654, 2747, 2808, 2683, 2628]",
        "[113778000000000000, 9646000000000000, 50000000000000000, 128506000000000000, 64160000000000000, 1385000000000000, 4249000000000000, 9960000000000000, 11853000000000000, 272678000000000000]"
      ],
      "transaction": {
        "from": "0x40ade76a75066c6f6ef4dd18aa6218592dea0799",
        "to": "0x106d7759f06eb02e339838461531c6f8f3f7aef3",
        "gas": "0x29f9e2",
        "value": "0x93edf0343097000",
        "input": "0xd63418f4000000000000000000000000000000000000000000000000000000000000008000000000000000000000000000000000000000000000000000000000000001e0000000000000000000000000000000000000000000000000000000000000034000000000000000000000000000000000000000000000000000000000000004a0000000000000000000000000000000000000000000000000000000000000000a00000000000000000000000000000000000000000000000000000000689a050e00000000000000000000000000000000000000000000000000000000689a050e00000000000000000000000000000000000000000000000000000000689a050e00000000000000000000000000000000000000000000000000000000689a050e00000000000000000000000000000000000000000000000000000000689a050e00000000000000000000000000000000000000000000000000000000689a050e00000000000000000000000000000000000000000000000000000000689a050e00000000000000000000000000000000000000000000000000000000689a050e00000000000000000000000000000000000000000000000000000000689a050e00000000000000000000000000000000000000000000000000000000689a050e000000000000000000000000000000000000000000000000000000000000000a0000000000000000000000000000000000000000000000000000000000000a010000000000000000000000000000000000000000000000000000000000000a2a00000000000000000000000000000000000000000000000000000000000010cc0000000000000000000000000000000000000000000000000000000000000a260000000000000000000000000000000000000000000000000000000000000a330000000000000000000000000000000000000000000000000000000000000a090000000000000000000000000000000000000000000000000000000000000a1f0000000000000000000000000000000000000000000000000000000000000a550000000000000000000000000000000000000000000000000000000000000a4000000000000000000000000000000000000000000000000000000000000009fa000000000000000000000000000000000000000000000000000000000000000a0000000000000000000000000000000000000000000000000000000000000a340000000000000000000000000000000000000000000000000000000000000a5100000000000000000000000000000000000000000000000000000000000019640000000000000000000000000000000000000000000000000000000000000a6d0000000000000000000000000000000000000000000000000000000000000a530000000000000000000000000000000000000000000000000000000000000a5e0000000000000000000000000000000000000000000000000000000000000abb0000000000000000000000000000000000000000000000000000000000000af80000000000000000000000000000000000000000000000000000000000000a7b0000000000000000000000000000000000000000000000000000000000000a44000000000000000000000000000000000000000000000000000000000000000a0000000000000000000000000000000000000000000000000194387cf9412000000000000000000000000000000000000000000000000000002244fc6380e00000000000000000000000000000000000000000000000000000b1a2bc2ec5000000000000000000000000000000000000000000000000000001c88b86b181a00000000000000000000000000000000000000000000000000000e3f12e18ca00000000000000000000000000000000000000000000000000000004eba671039000000000000000000000000000000000000000000000000000000f187167a690000000000000000000000000000000000000000000000000000023629135f68000000000000000000000000000000000000000000000000000002a1c3d9e85d00000000000000000000000000000000000000000000000000003c8bf3240106000",
        "nonce": "0x24",
        "chainId": "0x127"
      },
      "additionalContracts": [],
      "isFixedGasLimit": false
    }
  ],
  "receipts": [],
  "libraries": [],
  "pending": [],
  "returns": {},
  "timestamp": 1754665142,
  "chain": 295,
  "commit": "d3df94b"
}