{
  "transactions": [
    {
      "hash": "0x7c12bf54bc8a49f525e7f0a54245efd5f417b9aead407a09de4e756a0bd5b655",
      "transactionType": "CALL",
      "contractName": null,
      "contractAddress": "0x6e612d342dbaa17ea17c4a8fe95553c0594e052b",
      "function": "placeBet(uint256,uint256,uint256)",
      "arguments": [
        "1754559526",
        "1200",
        "2800"
      ],
      "transaction": {
        "from": "0x40ade76a75066c6f6ef4dd18aa6218592dea0799",
        "to": "0x6e612d342dbaa17ea17c4a8fe95553c0594e052b",
        "gas": "0x51f5c",
        "value": "0x16345785d8a0000",
        "input": "0xe71c9697000000000000000000000000000000000000000000000000000000006894742600000000000000000000000000000000000000000000000000000000000004b00000000000000000000000000000000000000000000000000000000000000af0",
        "nonce": "0x9",
        "chainId": "0x127"
      },
      "additionalContracts": [],
      "isFixedGasLimit": false
    }
  ],
  "receipts": [],
  "libraries": [],
  "pending": [
    "0x7c12bf54bc8a49f525e7f0a54245efd5f417b9aead407a09de4e756a0bd5b655"
  ],
  "returns": {
    "0": {
      "internal_type": "uint256",
      "value": "1"
    }
  },
  "timestamp": 1754473091,
  "chain": 295,
  "commit": "d3df94b"
}