{
  "transactions": [
    {
      "hash": "0x4c65f94bc2a61160aca5fce42255adec066a465b1b54966251e6cece97c6b21d",
      "transactionType": "CALL",
      "contractName": null,
      "contractAddress": "0x106d7759f06eb02e339838461531c6f8f3f7aef3",
      "function": "placeBatchBets(uint256[],uint256[],uint256[],uint256[])",
      "arguments": [
        "[1754837264, 1754837264, 1754837264, 1754923664, 1754923664, 1754923664, 1754923664, 1754923664, 1755010064, 1754923664]",
        "[2376, 2437, 2364, 4000, 2347, 2415, 3000, 2492, 2000, 2432]",
        "[2454, 2475, 2504, 5000, 2510, 2528, 3500, 2523, 2500, 2585]",
        "[8670000000000000, 12620000000000000, 29848000000000000, 120000000000000000, 23352000000000000, 6440000000000000, 200000000000000000, 117150000000000000, 500000000000000000, 76362000000000000]"
      ],
      "transaction": {
        "from": "0x40ade76a75066c6f6ef4dd18aa6218592dea0799",
        "to": "0x106d7759f06eb02e339838461531c6f8f3f7aef3",
        "gas": "0x2a9697",
        "value": "0xf303d334d44a000",
        "input": "0xd63418f4000000000000000000000000000000000000000000000000000000000000008000000000000000000000000000000000000000000000000000000000000001e0000000000000000000000000000000000000000000000000000000000000034000000000000000000000000000000000000000000000000000000000000004a0000000000000000000000000000000000000000000000000000000000000000a000000000000000000000000000000000000000000000000000000006898b110000000000000000000000000000000000000000000000000000000006898b110000000000000000000000000000000000000000000000000000000006898b11000000000000000000000000000000000000000000000000000000000689a029000000000000000000000000000000000000000000000000000000000689a029000000000000000000000000000000000000000000000000000000000689a029000000000000000000000000000000000000000000000000000000000689a029000000000000000000000000000000000000000000000000000000000689a029000000000000000000000000000000000000000000000000000000000689b541000000000000000000000000000000000000000000000000000000000689a0290000000000000000000000000000000000000000000000000000000000000000a00000000000000000000000000000000000000000000000000000000000009480000000000000000000000000000000000000000000000000000000000000985000000000000000000000000000000000000000000000000000000000000093c0000000000000000000000000000000000000000000000000000000000000fa0000000000000000000000000000000000000000000000000000000000000092b000000000000000000000000000000000000000000000000000000000000096f0000000000000000000000000000000000000000000000000000000000000bb800000000000000000000000000000000000000000000000000000000000009bc00000000000000000000000000000000000000000000000000000000000007d00000000000000000000000000000000000000000000000000000000000000980000000000000000000000000000000000000000000000000000000000000000a000000000000000000000000000000000000000000000000000000000000099600000000000000000000000000000000000000000000000000000000000009ab00000000000000000000000000000000000000000000000000000000000009c8000000000000000000000000000000000000000000000000000000000000138800000000000000000000000000000000000000000000000000000000000009ce00000000000000000000000000000000000000000000000000000000000009e00000000000000000000000000000000000000000000000000000000000000dac00000000000000000000000000000000000000000000000000000000000009db00000000000000000000000000000000000000000000000000000000000009c40000000000000000000000000000000000000000000000000000000000000a19000000000000000000000000000000000000000000000000000000000000000a000000000000000000000000000000000000000000000000001ecd51ae33e000000000000000000000000000000000000000000000000000002cd5d2b910c000000000000000000000000000000000000000000000000000006a0a990d41800000000000000000000000000000000000000000000000000001aa535d3d0c00000000000000000000000000000000000000000000000000000052f68530cb80000000000000000000000000000000000000000000000000000016e125585a800000000000000000000000000000000000000000000000000002c68af0bb14000000000000000000000000000000000000000000000000000001a0334de76fe00000000000000000000000000000000000000000000000000006f05b59d3b20000000000000000000000000000000000000000000000000000010f4ad59c56a000",
        "nonce": "0x1d",
        "chainId": "0x127"
      },
      "additionalContracts": [],
      "isFixedGasLimit": false
    }
  ],
  "receipts": [],
  "libraries": [],
  "pending": [
    "0x4c65f94bc2a61160aca5fce42255adec066a465b1b54966251e6cece97c6b21d"
  ],
  "returns": {},
  "timestamp": 1754664517,
  "chain": 295,
  "commit": "d3df94b"
}