{
  "transactions": [
    {
      "hash": "0x8dcbde51b3f3bf1ba2e72af25c00ae4a4181ecce2b17053c6b7533531610b852",
      "transactionType": "CALL",
      "contractName": null,
      "contractAddress": "0x106d7759f06eb02e339838461531c6f8f3f7aef3",
      "function": "placeBatchBets(uint256[],uint256[],uint256[],uint256[])",
      "arguments": [
        "[1754923820, 1754923820, 1754923820, 1754923820, 1754923820, 1754923820, 1754923820, 1754923820, 1754923820, 1754923820]",
        "[1500, 2327, 2411, 5700, 2468, 1933, 2456, 900, 2495, 2432]",
        "[2000, 2422, 2478, 6300, 2615, 2090, 2529, 1300, 2597, 2458]",
        "[40000000000000000, 9306000000000000, 72504000000000000, 600000000000000000, 6640000000000000, 430830000000000000, 21831000000000000, 20000000000000000, 6300000000000000, 82620000000000000]"
      ],
      "transaction": {
        "from": "0x40ade76a75066c6f6ef4dd18aa6218592dea0799",
        "to": "0x106d7759f06eb02e339838461531c6f8f3f7aef3",
        "gas": "0x29f968",
        "value": "0x11e71c5c103df000",
        "input": "0xd63418f4000000000000000000000000000000000000000000000000000000000000008000000000000000000000000000000000000000000000000000000000000001e0000000000000000000000000000000000000000000000000000000000000034000000000000000000000000000000000000000000000000000000000000004a0000000000000000000000000000000000000000000000000000000000000000a00000000000000000000000000000000000000000000000000000000689a032c00000000000000000000000000000000000000000000000000000000689a032c00000000000000000000000000000000000000000000000000000000689a032c00000000000000000000000000000000000000000000000000000000689a032c00000000000000000000000000000000000000000000000000000000689a032c00000000000000000000000000000000000000000000000000000000689a032c00000000000000000000000000000000000000000000000000000000689a032c00000000000000000000000000000000000000000000000000000000689a032c00000000000000000000000000000000000000000000000000000000689a032c00000000000000000000000000000000000000000000000000000000689a032c000000000000000000000000000000000000000000000000000000000000000a00000000000000000000000000000000000000000000000000000000000005dc0000000000000000000000000000000000000000000000000000000000000917000000000000000000000000000000000000000000000000000000000000096b000000000000000000000000000000000000000000000000000000000000164400000000000000000000000000000000000000000000000000000000000009a4000000000000000000000000000000000000000000000000000000000000078d0000000000000000000000000000000000000000000000000000000000000998000000000000000000000000000000000000000000000000000000000000038400000000000000000000000000000000000000000000000000000000000009bf0000000000000000000000000000000000000000000000000000000000000980000000000000000000000000000000000000000000000000000000000000000a00000000000000000000000000000000000000000000000000000000000007d0000000000000000000000000000000000000000000000000000000000000097600000000000000000000000000000000000000000000000000000000000009ae000000000000000000000000000000000000000000000000000000000000189c0000000000000000000000000000000000000000000000000000000000000a37000000000000000000000000000000000000000000000000000000000000082a00000000000000000000000000000000000000000000000000000000000009e100000000000000000000000000000000000000000000000000000000000005140000000000000000000000000000000000000000000000000000000000000a25000000000000000000000000000000000000000000000000000000000000099a000000000000000000000000000000000000000000000000000000000000000a000000000000000000000000000000000000000000000000008e1bc9bf04000000000000000000000000000000000000000000000000000000210fc1f847a00000000000000000000000000000000000000000000000000001019600fccb80000000000000000000000000000000000000000000000000000853a0d2313c00000000000000000000000000000000000000000000000000000017970b794f000000000000000000000000000000000000000000000000000005fa9d9a3494e000000000000000000000000000000000000000000000000000004d8f2dc817700000000000000000000000000000000000000000000000000000470de4df820000000000000000000000000000000000000000000000000000001661d10e15c00000000000000000000000000000000000000000000000000001258673c757c000",
        "nonce": "0x1f",
        "chainId": "0x127"
      },
      "additionalContracts": [],
      "isFixedGasLimit": false
    }
  ],
  "receipts": [],
  "libraries": [],
  "pending": [
    "0x8dcbde51b3f3bf1ba2e72af25c00ae4a4181ecce2b17053c6b7533531610b852"
  ],
  "returns": {},
  "timestamp": 1754664669,
  "chain": 295,
  "commit": "d3df94b"
}