{
  "transactions": [
    {
      "hash": "0x2f911f9611d2a5f768202dff2a2aa5f4d5809c6701dc7f91ecdf8f6b6f1eb85b",
      "transactionType": "CALL",
      "contractName": null,
      "contractAddress": "0x106d7759f06eb02e339838461531c6f8f3f7aef3",
      "function": "placeBatchBets(uint256[],uint256[],uint256[],uint256[])",
      "arguments": [
        "[1754837332, 1754923732, 1754923732, 1754923732, 1754923732, 1754923732, 1754923732, 1754923732, 1754923732, 1754923732]",
        "[2338, 1744, 2253, 2384, 5000, 2461, 2322, 2406, 3700, 2440]",
        "[2464, 1846, 2436, 2525, 7000, 2503, 2469, 2504, 4000, 2480]",
        "[2181000000000000, 560000000000000000, 68647000000000000, 165248000000000000, 30000000000000000, 2472000000000000, 36720000000000000, 49040000000000000, 640000000000000000, 11186000000000000]"
      ],
      "transaction": {
        "from": "0x40ade76a75066c6f6ef4dd18aa6218592dea0799",
        "to": "0x106d7759f06eb02e339838461531c6f8f3f7aef3",
        "gas": "0x2a479f",
        "value": "0x15b9c07fa8016000",
        "input": "0xd63418f4000000000000000000000000000000000000000000000000000000000000008000000000000000000000000000000000000000000000000000000000000001e0000000000000000000000000000000000000000000000000000000000000034000000000000000000000000000000000000000000000000000000000000004a0000000000000000000000000000000000000000000000000000000000000000a000000000000000000000000000000000000000000000000000000006898b15400000000000000000000000000000000000000000000000000000000689a02d400000000000000000000000000000000000000000000000000000000689a02d400000000000000000000000000000000000000000000000000000000689a02d400000000000000000000000000000000000000000000000000000000689a02d400000000000000000000000000000000000000000000000000000000689a02d400000000000000000000000000000000000000000000000000000000689a02d400000000000000000000000000000000000000000000000000000000689a02d400000000000000000000000000000000000000000000000000000000689a02d400000000000000000000000000000000000000000000000000000000689a02d4000000000000000000000000000000000000000000000000000000000000000a000000000000000000000000000000000000000000000000000000000000092200000000000000000000000000000000000000000000000000000000000006d000000000000000000000000000000000000000000000000000000000000008cd00000000000000000000000000000000000000000000000000000000000009500000000000000000000000000000000000000000000000000000000000001388000000000000000000000000000000000000000000000000000000000000099d000000000000000000000000000000000000000000000000000000000000091200000000000000000000000000000000000000000000000000000000000009660000000000000000000000000000000000000000000000000000000000000e740000000000000000000000000000000000000000000000000000000000000988000000000000000000000000000000000000000000000000000000000000000a00000000000000000000000000000000000000000000000000000000000009a00000000000000000000000000000000000000000000000000000000000000736000000000000000000000000000000000000000000000000000000000000098400000000000000000000000000000000000000000000000000000000000009dd0000000000000000000000000000000000000000000000000000000000001b5800000000000000000000000000000000000000000000000000000000000009c700000000000000000000000000000000000000000000000000000000000009a500000000000000000000000000000000000000000000000000000000000009c80000000000000000000000000000000000000000000000000000000000000fa000000000000000000000000000000000000000000000000000000000000009b0000000000000000000000000000000000000000000000000000000000000000a0000000000000000000000000000000000000000000000000007bf9ba241500000000000000000000000000000000000000000000000000007c585087238000000000000000000000000000000000000000000000000000000f3e21531e57000000000000000000000000000000000000000000000000000024b142e33d80000000000000000000000000000000000000000000000000000006a94d74f4300000000000000000000000000000000000000000000000000000008c84559e28000000000000000000000000000000000000000000000000000008274a53c27000000000000000000000000000000000000000000000000000000ae399ec3c9000000000000000000000000000000000000000000000000000008e1bc9bf04000000000000000000000000000000000000000000000000000000027bd9b94752000",
        "nonce": "0x1e",
        "chainId": "0x127"
      },
      "additionalContracts": [],
      "isFixedGasLimit": false
    }
  ],
  "receipts": [],
  "libraries": [],
  "pending": [
    "0x2f911f9611d2a5f768202dff2a2aa5f4d5809c6701dc7f91ecdf8f6b6f1eb85b"
  ],
  "returns": {},
  "timestamp": 1754664586,
  "chain": 295,
  "commit": "d3df94b"
}