{
  "transactions": [
    {
      "hash": "0x75450186875df1cb8fe5369bfcdcba4d28818d8febf65cdeab22894e58094f79",
      "transactionType": "CALL",
      "contractName": null,
      "contractAddress": "0x106d7759f06eb02e339838461531c6f8f3f7aef3",
      "function": "placeBatchBets(uint256[],uint256[],uint256[],uint256[])",
      "arguments": [
        "[1754924174, 1754924174, 1754924174, 1754924174, 1754924174, 1754924174, 1754924174, 1754924174, 1754924174, 1754924174]",
        "[2454, 2388, 5100, 2475, 2415, 5200, 2554, 2484, 2486, 2585]",
        "[2508, 2491, 6000, 2682, 2530, 5500, 2603, 2577, 2651, 2656]",
        "[206060000000000000, 129136000000000000, 720000000000000000, 6578000000000000, 37226000000000000, 390000000000000000, 6768000000000000, 6200000000000000, 19248000000000000, 22440000000000000]"
      ],
      "transaction": {
        "from": "0x40ade76a75066c6f6ef4dd18aa6218592dea0799",
        "to": "0x106d7759f06eb02e339838461531c6f8f3f7aef3",
        "gas": "0x29fa07",
        "value": "0x156c2af40f668000",
        "input": "0xd63418f4000000000000000000000000000000000000000000000000000000000000008000000000000000000000000000000000000000000000000000000000000001e0000000000000000000000000000000000000000000000000000000000000034000000000000000000000000000000000000000000000000000000000000004a0000000000000000000000000000000000000000000000000000000000000000a00000000000000000000000000000000000000000000000000000000689a048e00000000000000000000000000000000000000000000000000000000689a048e00000000000000000000000000000000000000000000000000000000689a048e00000000000000000000000000000000000000000000000000000000689a048e00000000000000000000000000000000000000000000000000000000689a048e00000000000000000000000000000000000000000000000000000000689a048e00000000000000000000000000000000000000000000000000000000689a048e00000000000000000000000000000000000000000000000000000000689a048e00000000000000000000000000000000000000000000000000000000689a048e00000000000000000000000000000000000000000000000000000000689a048e000000000000000000000000000000000000000000000000000000000000000a0000000000000000000000000000000000000000000000000000000000000996000000000000000000000000000000000000000000000000000000000000095400000000000000000000000000000000000000000000000000000000000013ec00000000000000000000000000000000000000000000000000000000000009ab000000000000000000000000000000000000000000000000000000000000096f000000000000000000000000000000000000000000000000000000000000145000000000000000000000000000000000000000000000000000000000000009fa00000000000000000000000000000000000000000000000000000000000009b400000000000000000000000000000000000000000000000000000000000009b60000000000000000000000000000000000000000000000000000000000000a19000000000000000000000000000000000000000000000000000000000000000a00000000000000000000000000000000000000000000000000000000000009cc00000000000000000000000000000000000000000000000000000000000009bb00000000000000000000000000000000000000000000000000000000000017700000000000000000000000000000000000000000000000000000000000000a7a00000000000000000000000000000000000000000000000000000000000009e2000000000000000000000000000000000000000000000000000000000000157c0000000000000000000000000000000000000000000000000000000000000a2b0000000000000000000000000000000000000000000000000000000000000a110000000000000000000000000000000000000000000000000000000000000a5b0000000000000000000000000000000000000000000000000000000000000a60000000000000000000000000000000000000000000000000000000000000000a00000000000000000000000000000000000000000000000002dc127a6e6ac00000000000000000000000000000000000000000000000000001cac881ffb7000000000000000000000000000000000000000000000000000009fdf42f6e48000000000000000000000000000000000000000000000000000000175ea7f9552000000000000000000000000000000000000000000000000000008440d98a68a00000000000000000000000000000000000000000000000000005698eef0667000000000000000000000000000000000000000000000000000000180b75cbd70000000000000000000000000000000000000000000000000000001606ddfd9b8000000000000000000000000000000000000000000000000000004461f43aa30000000000000000000000000000000000000000000000000000004fb90fa4c28000",
        "nonce": "0x23",
        "chainId": "0x127"
      },
      "additionalContracts": [],
      "isFixedGasLimit": false
    }
  ],
  "receipts": [],
  "libraries": [],
  "pending": [
    "0x75450186875df1cb8fe5369bfcdcba4d28818d8febf65cdeab22894e58094f79"
  ],
  "returns": {},
  "timestamp": 1754665019,
  "chain": 295,
  "commit": "d3df94b"
}